:10000000EAE7F0E0808187608083ACE7B0E08C9124
:1000100080648C93808180688083089590917C00B7
:10002000987F8770892B80937C0080917A00806410
:1000300080937A0080917A0086FDFCCF80917800D1
:100040009091790008950E940000259A80E00E9416
:100050000E002D98853F9140C8F38FEF93ED20E37C
:10006000815090402040E1F700C000002D9A8FEFB2
:1000700093ED20E3815090402040E1F700C0000064
:02008000E5CFCA
:00000001FF
